{
  "_format": "hh-sol-artifact-1",
  "contractName": "NFTMarketplace",
  "sourceName": "contracts/NFTMarketplace.sol",
  "abi": [
    {
      "inputs": [],
      "stateMutability": "nonpayable",
      "type": "constructor"
    },
    {
      "anonymous": false,
      "inputs": [
        {
          "indexed": false,
          "internalType": "uint256",
          "name": "nftId",
          "type": "uint256"
        },
        {
          "indexed": false,
          "internalType": "uint256",
          "name": "tokenId",
          "type": "uint256"
        },
        {
          "indexed": false,
          "internalType": "address payable",
          "name": "owner",
          "type": "address"
        },
        {
          "indexed": false,
          "internalType": "address payable",
          "name": "seller",
          "type": "address"
        },
        {
          "indexed": false,
          "internalType": "uint256",
          "name": "price",
          "type": "uint256"
        },
        {
          "indexed": false,
          "internalType": "bool",
          "name": "currentlyListed",
          "type": "bool"
        }
      ],
      "name": "TokenListedSuccess",
      "type": "event"
    },
    {
      "inputs": [
        {
          "internalType": "uint256",
          "name": "tokenId",
          "type": "uint256"
        },
        {
          "internalType": "uint256",
          "name": "price",
          "type": "uint256"
        },
        {
          "internalType": "contract NFTCollection",
          "name": "collection",
          "type": "address"
        }
      ],
      "name": "ListToken",
      "outputs": [],
      "stateMutability": "payable",
      "type": "function"
    },
    {
      "inputs": [
        {
          "internalType": "contract NFTCollection",
          "name": "collection",
          "type": "address"
        },
        {
          "internalType": "uint256",
          "name": "tokenId",
          "type": "uint256"
        }
      ],
      "name": "cancelListing",
      "outputs": [],
      "stateMutability": "nonpayable",
      "type": "function"
    },
    {
      "inputs": [
        {
          "internalType": "uint256",
          "name": "new_listing_fee",
          "type": "uint256"
        }
      ],
      "name": "change_listing_fee",
      "outputs": [],
      "stateMutability": "nonpayable",
      "type": "function"
    },
    {
      "inputs": [
        {
          "internalType": "uint256",
          "name": "tokenId",
          "type": "uint256"
        },
        {
          "internalType": "contract NFTCollection",
          "name": "collection",
          "type": "address"
        }
      ],
      "name": "executeSale",
      "outputs": [],
      "stateMutability": "payable",
      "type": "function"
    },
    {
      "inputs": [],
      "name": "getAllNFTs",
      "outputs": [
        {
          "components": [
            {
              "internalType": "uint256",
              "name": "nftId",
              "type": "uint256"
            },
            {
              "internalType": "uint256",
              "name": "tokenId",
              "type": "uint256"
            },
            {
              "internalType": "address payable",
              "name": "owner",
              "type": "address"
            },
            {
              "internalType": "address payable",
              "name": "seller",
              "type": "address"
            },
            {
              "internalType": "uint256",
              "name": "price",
              "type": "uint256"
            },
            {
              "internalType": "bool",
              "name": "currentlyListed",
              "type": "bool"
            }
          ],
          "internalType": "struct NFTMarketplace.ListedToken[]",
          "name": "",
          "type": "tuple[]"
        }
      ],
      "stateMutability": "view",
      "type": "function"
    },
    {
      "inputs": [],
      "name": "getCurrentToken",
      "outputs": [
        {
          "internalType": "uint256",
          "name": "",
          "type": "uint256"
        }
      ],
      "stateMutability": "view",
      "type": "function"
    },
    {
      "inputs": [],
      "name": "getLatestIdToListedToken",
      "outputs": [
        {
          "components": [
            {
              "internalType": "uint256",
              "name": "nftId",
              "type": "uint256"
            },
            {
              "internalType": "uint256",
              "name": "tokenId",
              "type": "uint256"
            },
            {
              "internalType": "address payable",
              "name": "owner",
              "type": "address"
            },
            {
              "internalType": "address payable",
              "name": "seller",
              "type": "address"
            },
            {
              "internalType": "uint256",
              "name": "price",
              "type": "uint256"
            },
            {
              "internalType": "bool",
              "name": "currentlyListed",
              "type": "bool"
            }
          ],
          "internalType": "struct NFTMarketplace.ListedToken",
          "name": "",
          "type": "tuple"
        }
      ],
      "stateMutability": "view",
      "type": "function"
    },
    {
      "inputs": [],
      "name": "getListPrice",
      "outputs": [
        {
          "internalType": "uint256",
          "name": "",
          "type": "uint256"
        }
      ],
      "stateMutability": "view",
      "type": "function"
    },
    {
      "inputs": [
        {
          "internalType": "uint256",
          "name": "tokenId",
          "type": "uint256"
        },
        {
          "internalType": "contract NFTCollection",
          "name": "collection",
          "type": "address"
        }
      ],
      "name": "getListedTokenById",
      "outputs": [
        {
          "components": [
            {
              "internalType": "uint256",
              "name": "nftId",
              "type": "uint256"
            },
            {
              "internalType": "uint256",
              "name": "tokenId",
              "type": "uint256"
            },
            {
              "internalType": "address payable",
              "name": "owner",
              "type": "address"
            },
            {
              "internalType": "address payable",
              "name": "seller",
              "type": "address"
            },
            {
              "internalType": "uint256",
              "name": "price",
              "type": "uint256"
            },
            {
              "internalType": "bool",
              "name": "currentlyListed",
              "type": "bool"
            }
          ],
          "internalType": "struct NFTMarketplace.ListedToken",
          "name": "",
          "type": "tuple"
        }
      ],
      "stateMutability": "view",
      "type": "function"
    },
    {
      "inputs": [],
      "name": "getMyNFTs",
      "outputs": [
        {
          "components": [
            {
              "internalType": "uint256",
              "name": "nftId",
              "type": "uint256"
            },
            {
              "internalType": "uint256",
              "name": "tokenId",
              "type": "uint256"
            },
            {
              "internalType": "address payable",
              "name": "owner",
              "type": "address"
            },
            {
              "internalType": "address payable",
              "name": "seller",
              "type": "address"
            },
            {
              "internalType": "uint256",
              "name": "price",
              "type": "uint256"
            },
            {
              "internalType": "bool",
              "name": "currentlyListed",
              "type": "bool"
            }
          ],
          "internalType": "struct NFTMarketplace.ListedToken[]",
          "name": "",
          "type": "tuple[]"
        }
      ],
      "stateMutability": "view",
      "type": "function"
    },
    {
      "inputs": [
        {
          "internalType": "uint256",
          "name": "",
          "type": "uint256"
        }
      ],
      "name": "id_listed_token",
      "outputs": [
        {
          "internalType": "uint256",
          "name": "nftId",
          "type": "uint256"
        },
        {
          "internalType": "uint256",
          "name": "tokenId",
          "type": "uint256"
        },
        {
          "internalType": "address payable",
          "name": "owner",
          "type": "address"
        },
        {
          "internalType": "address payable",
          "name": "seller",
          "type": "address"
        },
        {
          "internalType": "uint256",
          "name": "price",
          "type": "uint256"
        },
        {
          "internalType": "bool",
          "name": "currentlyListed",
          "type": "bool"
        }
      ],
      "stateMutability": "view",
      "type": "function"
    },
    {
      "inputs": [],
      "name": "listPrice",
      "outputs": [
        {
          "internalType": "uint256",
          "name": "",
          "type": "uint256"
        }
      ],
      "stateMutability": "view",
      "type": "function"
    },
    {
      "inputs": [
        {
          "internalType": "contract NFTCollection",
          "name": "",
          "type": "address"
        },
        {
          "internalType": "uint256",
          "name": "",
          "type": "uint256"
        }
      ],
      "name": "nft_record",
      "outputs": [
        {
          "internalType": "uint256",
          "name": "nftId",
          "type": "uint256"
        },
        {
          "internalType": "uint256",
          "name": "tokenId",
          "type": "uint256"
        },
        {
          "internalType": "address payable",
          "name": "owner",
          "type": "address"
        },
        {
          "internalType": "address payable",
          "name": "seller",
          "type": "address"
        },
        {
          "internalType": "uint256",
          "name": "price",
          "type": "uint256"
        },
        {
          "internalType": "bool",
          "name": "currentlyListed",
          "type": "bool"
        }
      ],
      "stateMutability": "view",
      "type": "function"
    },
    {
      "inputs": [
        {
          "internalType": "string",
          "name": "_video_id",
          "type": "string"
        },
        {
          "internalType": "address payable",
          "name": "_recipient",
          "type": "address"
        }
      ],
      "name": "tip_creator",
      "outputs": [],
      "stateMutability": "payable",
      "type": "function"
    },
    {
      "inputs": [
        {
          "internalType": "string",
          "name": "",
          "type": "string"
        }
      ],
      "name": "tips",
      "outputs": [
        {
          "internalType": "string",
          "name": "video_id",
          "type": "string"
        },
        {
          "internalType": "uint256",
          "name": "total_tip",
          "type": "uint256"
        },
        {
          "internalType": "address",
          "name": "recipient",
          "type": "address"
        }
      ],
      "stateMutability": "view",
      "type": "function"
    },
    {
      "stateMutability": "payable",
      "type": "receive"
    }
  ],
  "bytecode": "0x6080604052662386f26fc1000060035534801561001b57600080fd5b5033600260006101000a81548173ffffffffffffffffffffffffffffffffffffffff021916908373ffffffffffffffffffffffffffffffffffffffff160217905550612ab38061006c6000396000f3fe6080604052600436106100ec5760003560e01c8063abb8ddc91161008a578063d1a88ae511610059578063d1a88ae514610303578063e0391b091461032e578063ef2d174614610359578063fd4f0b4f14610384576100f3565b8063abb8ddc914610253578063b2ddee061461027c578063b727faf0146102a5578063c9b6be75146102c1576100f3565b80634b97194b116100c65780634b97194b146101b6578063629cb2e4146101d257806368f1945f146101fd5780636eb588d914610228576100f3565b8063010aa9bc146100f85780631885796d146101355780633782752814610177576100f3565b366100f357005b600080fd5b34801561010457600080fd5b5061011f600480360381019061011a9190611bf6565b6103a0565b60405161012c9190611cfc565b60405180910390f35b34801561014157600080fd5b5061015c60048036038101906101579190611d17565b6104f0565b60405161016e96959493929190611d84565b60405180910390f35b34801561018357600080fd5b5061019e60048036038101906101999190611f2b565b610586565b6040516101ad93929190612002565b60405180910390f35b6101d060048036038101906101cb919061206c565b61066e565b005b3480156101de57600080fd5b506101e76107ed565b6040516101f491906121f2565b60405180910390f35b34801561020957600080fd5b50610212610b98565b60405161021f9190612214565b60405180910390f35b34801561023457600080fd5b5061023d610ba2565b60405161024a9190612214565b60405180910390f35b34801561025f57600080fd5b5061027a6004803603810190610275919061222f565b610ba8565b005b34801561028857600080fd5b506102a3600480360381019061029e9190611d17565b610c42565b005b6102bf60048036038101906102ba919061225c565b611020565b005b3480156102cd57600080fd5b506102e860048036038101906102e3919061222f565b611470565b6040516102fa96959493929190611d84565b60405180910390f35b34801561030f57600080fd5b506103186114f9565b6040516103259190611cfc565b60405180910390f35b34801561033a57600080fd5b50610343611618565b60405161035091906121f2565b60405180910390f35b34801561036557600080fd5b5061036e611849565b60405161037b9190612214565b60405180910390f35b61039e60048036038101906103999190611bf6565b61185a565b005b6103a8611ad8565b600560008373ffffffffffffffffffffffffffffffffffffffff1673ffffffffffffffffffffffffffffffffffffffff16815260200190815260200160002060008481526020019081526020016000206040518060c001604052908160008201548152602001600182015481526020016002820160009054906101000a900473ffffffffffffffffffffffffffffffffffffffff1673ffffffffffffffffffffffffffffffffffffffff1673ffffffffffffffffffffffffffffffffffffffff1681526020016003820160009054906101000a900473ffffffffffffffffffffffffffffffffffffffff1673ffffffffffffffffffffffffffffffffffffffff1673ffffffffffffffffffffffffffffffffffffffff168152602001600482015481526020016005820160009054906101000a900460ff161515151581525050905092915050565b6005602052816000526040600020602052806000526040600020600091509150508060000154908060010154908060020160009054906101000a900473ffffffffffffffffffffffffffffffffffffffff16908060030160009054906101000a900473ffffffffffffffffffffffffffffffffffffffff16908060040154908060050160009054906101000a900460ff16905086565b6004818051602081018201805184825260208301602085012081835280955050505050506000915090508060000180546105bf906122de565b80601f01602080910402602001604051908101604052809291908181526020018280546105eb906122de565b80156106385780601f1061060d57610100808354040283529160200191610638565b820191906000526020600020905b81548152906001019060200180831161061b57829003601f168201915b5050505050908060010154908060020160009054906101000a900473ffffffffffffffffffffffffffffffffffffffff16905083565b600034116106b1576040517f08c379a00000000000000000000000000000000000000000000000000000000081526004016106a89061235b565b60405180910390fd5b60006004836040516106c391906123b7565b90815260200160405180910390206001015490506000604051806060016040528085815260200134846106f691906123fd565b81526020018473ffffffffffffffffffffffffffffffffffffffff1681525090508060048560405161072891906123b7565b9081526020016040518091039020600082015181600001908161074b91906125dd565b506020820151816001015560408201518160020160006101000a81548173ffffffffffffffffffffffffffffffffffffffff021916908373ffffffffffffffffffffffffffffffffffffffff1602179055509050508273ffffffffffffffffffffffffffffffffffffffff166108fc349081150290604051600060405180830381858888f193505050501580156107e6573d6000803e3d6000fd5b5050505050565b606060006107fb6000611ab4565b905060008060005b83811015610904573373ffffffffffffffffffffffffffffffffffffffff166006600083815260200190815260200160002060020160009054906101000a900473ffffffffffffffffffffffffffffffffffffffff1673ffffffffffffffffffffffffffffffffffffffff1614806108dc57503373ffffffffffffffffffffffffffffffffffffffff166006600083815260200190815260200160002060030160009054906101000a900473ffffffffffffffffffffffffffffffffffffffff1673ffffffffffffffffffffffffffffffffffffffff16145b156108f1576001836108ee91906123fd565b92505b80806108fc906126af565b915050610803565b5060008267ffffffffffffffff81111561092157610920611e00565b5b60405190808252806020026020018201604052801561095a57816020015b610947611ad8565b81526020019060019003908161093f5790505b50905060005b84811015610b8d573373ffffffffffffffffffffffffffffffffffffffff166006600083815260200190815260200160002060020160009054906101000a900473ffffffffffffffffffffffffffffffffffffffff1673ffffffffffffffffffffffffffffffffffffffff161480610a3957503373ffffffffffffffffffffffffffffffffffffffff166006600083815260200190815260200160002060030160009054906101000a900473ffffffffffffffffffffffffffffffffffffffff1673ffffffffffffffffffffffffffffffffffffffff16145b15610b7a5760008190506000600660008381526020019081526020016000209050806040518060c001604052908160008201548152602001600182015481526020016002820160009054906101000a900473ffffffffffffffffffffffffffffffffffffffff1673ffffffffffffffffffffffffffffffffffffffff1673ffffffffffffffffffffffffffffffffffffffff1681526020016003820160009054906101000a900473ffffffffffffffffffffffffffffffffffffffff1673ffffffffffffffffffffffffffffffffffffffff1673ffffffffffffffffffffffffffffffffffffffff168152602001600482015481526020016005820160009054906101000a900460ff161515151581525050848681518110610b5e57610b5d6126f7565b5b60200260200101819052508480610b74906126af565b95505050505b8080610b85906126af565b915050610960565b508094505050505090565b6000600354905090565b60035481565b600260009054906101000a900473ffffffffffffffffffffffffffffffffffffffff1673ffffffffffffffffffffffffffffffffffffffff163373ffffffffffffffffffffffffffffffffffffffff1614610c38576040517f08c379a0000000000000000000000000000000000000000000000000000000008152600401610c2f90612798565b60405180910390fd5b8060038190555050565b600560008373ffffffffffffffffffffffffffffffffffffffff1673ffffffffffffffffffffffffffffffffffffffff168152602001908152602001600020600082815260200190815260200160002060050160009054906101000a900460ff16610ce2576040517f08c379a0000000000000000000000000000000000000000000000000000000008152600401610cd990612804565b60405180910390fd5b3373ffffffffffffffffffffffffffffffffffffffff16600560008473ffffffffffffffffffffffffffffffffffffffff1673ffffffffffffffffffffffffffffffffffffffff168152602001908152602001600020600083815260200190815260200160002060030160009054906101000a900473ffffffffffffffffffffffffffffffffffffffff1673ffffffffffffffffffffffffffffffffffffffff1614610dc3576040517f08c379a0000000000000000000000000000000000000000000000000000000008152600401610dba90612896565b60405180910390fd5b33600560008473ffffffffffffffffffffffffffffffffffffffff1673ffffffffffffffffffffffffffffffffffffffff168152602001908152602001600020600083815260200190815260200160002060020160006101000a81548173ffffffffffffffffffffffffffffffffffffffff021916908373ffffffffffffffffffffffffffffffffffffffff1602179055506000600560008473ffffffffffffffffffffffffffffffffffffffff1673ffffffffffffffffffffffffffffffffffffffff168152602001908152602001600020600083815260200190815260200160002060030160006101000a81548173ffffffffffffffffffffffffffffffffffffffff021916908373ffffffffffffffffffffffffffffffffffffffff1602179055506000600560008473ffffffffffffffffffffffffffffffffffffffff1673ffffffffffffffffffffffffffffffffffffffff1681526020019081526020016000206000838152602001908152602001600020600401819055506000600560008473ffffffffffffffffffffffffffffffffffffffff1673ffffffffffffffffffffffffffffffffffffffff168152602001908152602001600020600083815260200190815260200160002060050160006101000a81548160ff0219169083151502179055508173ffffffffffffffffffffffffffffffffffffffff166323b872dd3033846040518463ffffffff1660e01b8152600401610fea939291906128b6565b600060405180830381600087803b15801561100457600080fd5b505af1158015611018573d6000803e3d6000fd5b505050505050565b6003543414611064576040517f08c379a000000000000000000000000000000000000000000000000000000000815260040161105b90612939565b60405180910390fd5b600082116110a7576040517f08c379a000000000000000000000000000000000000000000000000000000000815260040161109e906129cb565b60405180910390fd5b60006110b36000611ab4565b90506040518060c001604052808281526020018581526020013073ffffffffffffffffffffffffffffffffffffffff1681526020013373ffffffffffffffffffffffffffffffffffffffff16815260200184815260200160011515815250600560008473ffffffffffffffffffffffffffffffffffffffff1673ffffffffffffffffffffffffffffffffffffffff1681526020019081526020016000206000868152602001908152602001600020600082015181600001556020820151816001015560408201518160020160006101000a81548173ffffffffffffffffffffffffffffffffffffffff021916908373ffffffffffffffffffffffffffffffffffffffff16021790555060608201518160030160006101000a81548173ffffffffffffffffffffffffffffffffffffffff021916908373ffffffffffffffffffffffffffffffffffffffff1602179055506080820151816004015560a08201518160050160006101000a81548160ff021916908315150217905550905050600560008373ffffffffffffffffffffffffffffffffffffffff1673ffffffffffffffffffffffffffffffffffffffff16815260200190815260200160002060008581526020019081526020016000206006600083815260200190815260200160002060008201548160000155600182015481600101556002820160009054906101000a900473ffffffffffffffffffffffffffffffffffffffff168160020160006101000a81548173ffffffffffffffffffffffffffffffffffffffff021916908373ffffffffffffffffffffffffffffffffffffffff1602179055506003820160009054906101000a900473ffffffffffffffffffffffffffffffffffffffff168160030160006101000a81548173ffffffffffffffffffffffffffffffffffffffff021916908373ffffffffffffffffffffffffffffffffffffffff160217905550600482015481600401556005820160009054906101000a900460ff168160050160006101000a81548160ff0219169083151502179055509050508173ffffffffffffffffffffffffffffffffffffffff166323b872dd3330876040518463ffffffff1660e01b81526004016113ec939291906128b6565b600060405180830381600087803b15801561140657600080fd5b505af115801561141a573d6000803e3d6000fd5b505050507f221989d075551c406d943b84b1edaadcdb2a384e9e23070440b8c974ac54295c8185303387600160405161145896959493929190611d84565b60405180910390a161146a6000611ac2565b50505050565b60066020528060005260406000206000915090508060000154908060010154908060020160009054906101000a900473ffffffffffffffffffffffffffffffffffffffff16908060030160009054906101000a900473ffffffffffffffffffffffffffffffffffffffff16908060040154908060050160009054906101000a900460ff16905086565b611501611ad8565b600061150d6000611ab4565b9050600660008281526020019081526020016000206040518060c001604052908160008201548152602001600182015481526020016002820160009054906101000a900473ffffffffffffffffffffffffffffffffffffffff1673ffffffffffffffffffffffffffffffffffffffff1673ffffffffffffffffffffffffffffffffffffffff1681526020016003820160009054906101000a900473ffffffffffffffffffffffffffffffffffffffff1673ffffffffffffffffffffffffffffffffffffffff1673ffffffffffffffffffffffffffffffffffffffff168152602001600482015481526020016005820160009054906101000a900460ff16151515158152505091505090565b606060006116266000611ab4565b905060008167ffffffffffffffff81111561164457611643611e00565b5b60405190808252806020026020018201604052801561167d57816020015b61166a611ad8565b8152602001906001900390816116625790505b5090506000805b8381101561183f57600073ffffffffffffffffffffffffffffffffffffffff166006600083815260200190815260200160002060020160009054906101000a900473ffffffffffffffffffffffffffffffffffffffff1673ffffffffffffffffffffffffffffffffffffffff161461182c576000600660008381526020019081526020016000206040518060c001604052908160008201548152602001600182015481526020016002820160009054906101000a900473ffffffffffffffffffffffffffffffffffffffff1673ffffffffffffffffffffffffffffffffffffffff1673ffffffffffffffffffffffffffffffffffffffff1681526020016003820160009054906101000a900473ffffffffffffffffffffffffffffffffffffffff1673ffffffffffffffffffffffffffffffffffffffff1673ffffffffffffffffffffffffffffffffffffffff168152602001600482015481526020016005820160009054906101000a900460ff161515151581525050905080848481518110611811576118106126f7565b5b60200260200101819052508280611827906126af565b935050505b8080611837906126af565b915050611684565b5081935050505090565b60006118556000611ab4565b905090565b6000600560008373ffffffffffffffffffffffffffffffffffffffff1673ffffffffffffffffffffffffffffffffffffffff1681526020019081526020016000206000848152602001908152602001600020905060008160040154905060008260030160009054906101000a900473ffffffffffffffffffffffffffffffffffffffff169050813414611922576040517f08c379a000000000000000000000000000000000000000000000000000000000815260040161191990612a5d565b60405180910390fd5b60008360050160006101000a81548160ff021916908315150217905550338360030160006101000a81548173ffffffffffffffffffffffffffffffffffffffff021916908373ffffffffffffffffffffffffffffffffffffffff16021790555061198c6001611ac2565b8373ffffffffffffffffffffffffffffffffffffffff166323b872dd3033886040518463ffffffff1660e01b81526004016119c9939291906128b6565b600060405180830381600087803b1580156119e357600080fd5b505af11580156119f7573d6000803e3d6000fd5b50505050600260009054906101000a900473ffffffffffffffffffffffffffffffffffffffff1673ffffffffffffffffffffffffffffffffffffffff166108fc6003549081150290604051600060405180830381858888f19350505050158015611a65573d6000803e3d6000fd5b508073ffffffffffffffffffffffffffffffffffffffff166108fc349081150290604051600060405180830381858888f19350505050158015611aac573d6000803e3d6000fd5b505050505050565b600081600001549050919050565b6001816000016000828254019250508190555050565b6040518060c001604052806000815260200160008152602001600073ffffffffffffffffffffffffffffffffffffffff168152602001600073ffffffffffffffffffffffffffffffffffffffff168152602001600081526020016000151581525090565b6000604051905090565b600080fd5b600080fd5b6000819050919050565b611b6381611b50565b8114611b6e57600080fd5b50565b600081359050611b8081611b5a565b92915050565b600073ffffffffffffffffffffffffffffffffffffffff82169050919050565b6000611bb182611b86565b9050919050565b6000611bc382611ba6565b9050919050565b611bd381611bb8565b8114611bde57600080fd5b50565b600081359050611bf081611bca565b92915050565b60008060408385031215611c0d57611c0c611b46565b5b6000611c1b85828601611b71565b9250506020611c2c85828601611be1565b9150509250929050565b611c3f81611b50565b82525050565b6000611c5082611b86565b9050919050565b611c6081611c45565b82525050565b60008115159050919050565b611c7b81611c66565b82525050565b60c082016000820151611c976000850182611c36565b506020820151611caa6020850182611c36565b506040820151611cbd6040850182611c57565b506060820151611cd06060850182611c57565b506080820151611ce36080850182611c36565b5060a0820151611cf660a0850182611c72565b50505050565b600060c082019050611d116000830184611c81565b92915050565b60008060408385031215611d2e57611d2d611b46565b5b6000611d3c85828601611be1565b9250506020611d4d85828601611b71565b9150509250929050565b611d6081611b50565b82525050565b611d6f81611c45565b82525050565b611d7e81611c66565b82525050565b600060c082019050611d996000830189611d57565b611da66020830188611d57565b611db36040830187611d66565b611dc06060830186611d66565b611dcd6080830185611d57565b611dda60a0830184611d75565b979650505050505050565b600080fd5b600080fd5b6000601f19601f8301169050919050565b7f4e487b7100000000000000000000000000000000000000000000000000000000600052604160045260246000fd5b611e3882611def565b810181811067ffffffffffffffff82111715611e5757611e56611e00565b5b80604052505050565b6000611e6a611b3c565b9050611e768282611e2f565b919050565b600067ffffffffffffffff821115611e9657611e95611e00565b5b611e9f82611def565b9050602081019050919050565b82818337600083830152505050565b6000611ece611ec984611e7b565b611e60565b905082815260208101848484011115611eea57611ee9611dea565b5b611ef5848285611eac565b509392505050565b600082601f830112611f1257611f11611de5565b5b8135611f22848260208601611ebb565b91505092915050565b600060208284031215611f4157611f40611b46565b5b600082013567ffffffffffffffff811115611f5f57611f5e611b4b565b5b611f6b84828501611efd565b91505092915050565b600081519050919050565b600082825260208201905092915050565b60005b83811015611fae578082015181840152602081019050611f93565b60008484015250505050565b6000611fc582611f74565b611fcf8185611f7f565b9350611fdf818560208601611f90565b611fe881611def565b840191505092915050565b611ffc81611ba6565b82525050565b6000606082019050818103600083015261201c8186611fba565b905061202b6020830185611d57565b6120386040830184611ff3565b949350505050565b61204981611c45565b811461205457600080fd5b50565b60008135905061206681612040565b92915050565b6000806040838503121561208357612082611b46565b5b600083013567ffffffffffffffff8111156120a1576120a0611b4b565b5b6120ad85828601611efd565b92505060206120be85828601612057565b9150509250929050565b600081519050919050565b600082825260208201905092915050565b6000819050602082019050919050565b60c08201600082015161210a6000850182611c36565b50602082015161211d6020850182611c36565b5060408201516121306040850182611c57565b5060608201516121436060850182611c57565b5060808201516121566080850182611c36565b5060a082015161216960a0850182611c72565b50505050565b600061217b83836120f4565b60c08301905092915050565b6000602082019050919050565b600061219f826120c8565b6121a981856120d3565b93506121b4836120e4565b8060005b838110156121e55781516121cc888261216f565b97506121d783612187565b9250506001810190506121b8565b5085935050505092915050565b6000602082019050818103600083015261220c8184612194565b905092915050565b60006020820190506122296000830184611d57565b92915050565b60006020828403121561224557612244611b46565b5b600061225384828501611b71565b91505092915050565b60008060006060848603121561227557612274611b46565b5b600061228386828701611b71565b935050602061229486828701611b71565b92505060406122a586828701611be1565b9150509250925092565b7f4e487b7100000000000000000000000000000000000000000000000000000000600052602260045260246000fd5b600060028204905060018216806122f657607f821691505b602082108103612309576123086122af565b5b50919050565b7f506c656173652073656e6420612076616c69642076616c756500000000000000600082015250565b6000612345601983611f7f565b91506123508261230f565b602082019050919050565b6000602082019050818103600083015261237481612338565b9050919050565b600081905092915050565b600061239182611f74565b61239b818561237b565b93506123ab818560208601611f90565b80840191505092915050565b60006123c38284612386565b915081905092915050565b7f4e487b7100000000000000000000000000000000000000000000000000000000600052601160045260246000fd5b600061240882611b50565b915061241383611b50565b925082820190508082111561242b5761242a6123ce565b5b92915050565b60008190508160005260206000209050919050565b60006020601f8301049050919050565b600082821b905092915050565b6000600883026124937fffffffffffffffffffffffffffffffffffffffffffffffffffffffffffffffff82612456565b61249d8683612456565b95508019841693508086168417925050509392505050565b6000819050919050565b60006124da6124d56124d084611b50565b6124b5565b611b50565b9050919050565b6000819050919050565b6124f4836124bf565b612508612500826124e1565b848454612463565b825550505050565b600090565b61251d612510565b6125288184846124eb565b505050565b5b8181101561254c57612541600082612515565b60018101905061252e565b5050565b601f8211156125915761256281612431565b61256b84612446565b8101602085101561257a578190505b61258e61258685612446565b83018261252d565b50505b505050565b600082821c905092915050565b60006125b460001984600802612596565b1980831691505092915050565b60006125cd83836125a3565b9150826002028217905092915050565b6125e682611f74565b67ffffffffffffffff8111156125ff576125fe611e00565b5b61260982546122de565b612614828285612550565b600060209050601f8311600181146126475760008415612635578287015190505b61263f85826125c1565b8655506126a7565b601f19841661265586612431565b60005b8281101561267d57848901518255600182019150602085019450602081019050612658565b8683101561269a5784890151612696601f8916826125a3565b8355505b6001600288020188555050505b505050505050565b60006126ba82611b50565b91507fffffffffffffffffffffffffffffffffffffffffffffffffffffffffffffffff82036126ec576126eb6123ce565b5b600182019050919050565b7f4e487b7100000000000000000000000000000000000000000000000000000000600052603260045260246000fd5b7f4f6e6c7920706c6174666f726d206f776e65722063616e2063616c6c2074686960008201527f732066756e6374696f6e00000000000000000000000000000000000000000000602082015250565b6000612782602a83611f7f565b915061278d82612726565b604082019050919050565b600060208201905081810360008301526127b181612775565b9050919050565b7f54686973204e4654206973206e6f74206c697374656400000000000000000000600082015250565b60006127ee601683611f7f565b91506127f9826127b8565b602082019050919050565b6000602082019050818103600083015261281d816127e1565b9050919050565b7f596f7520617265206e6f7420746865206f776e6572206f662074686973206e6660008201527f7400000000000000000000000000000000000000000000000000000000000000602082015250565b6000612880602183611f7f565b915061288b82612824565b604082019050919050565b600060208201905081810360008301526128af81612873565b9050919050565b60006060820190506128cb6000830186611ff3565b6128d86020830185611ff3565b6128e56040830184611d57565b949350505050565b7f506c656173652073656e6420746865206c697374696e67206665657300000000600082015250565b6000612923601c83611f7f565b915061292e826128ed565b602082019050919050565b6000602082019050818103600083015261295281612916565b9050919050565b7f4d616b652073757265207468652070726963652069736e2774206e656761746960008201527f7665000000000000000000000000000000000000000000000000000000000000602082015250565b60006129b5602283611f7f565b91506129c082612959565b604082019050919050565b600060208201905081810360008301526129e4816129a8565b9050919050565b7f506c65617365207375626d6974207468652061736b696e67207072696365206960008201527f6e206f7264657220746f20636f6d706c65746520746865207075726368617365602082015250565b6000612a47604083611f7f565b9150612a52826129eb565b604082019050919050565b60006020820190508181036000830152612a7681612a3a565b905091905056fea2646970667358221220cadeefdc19e3fe6289f9c6bcd0a2e909acf381b05ee60b5a90cc33ade30ff50264736f6c63430008120033",
  "linkReferences": {},
  "deployedLinkReferences": {}
}